:0400000002002C329C
:01000B0032C2
:0100130032BA
:01001B0032B2
:0100230032AA
:10002B003275500D7522857523009016051215E952
:10003B0075522B31E631CF31FF754F303138D2004D
:10004B00755300314260FCB443052000D480E8B402
:10005B002B0DC0E011CBD052D20075530080E4B40D
:10006B002D0DC0E011CBD052D20075530080D4B40B
:10007B002A0DC0E011CBD052D20075530080C4B40E
:10008B002F0DC0E011CBD052D20075530080B4209D
:10009B00000DAF53BF070050AA3117313880A4C0F1
:1000AB00E031FF754F30D0E0B42E03754E30B430D5
:1000BB0007754F303138808BF54F3138C200014E08
:1000CB0030000BE5222406F522794012130B794000
:1000DB0012130BE55211FE78558854A8221215A263
:1000EB001213B931FFA854794F18E6F719B855F91F
:1000FB00313822B42B03021009B42D03021002B4C1
:10010B002A030210EDB42F0302112222C0E0755313
:10011B0000784079417F0FE7B42E021553B42002CB
:10012B0015530553F60809DFEED0E0F622E431DA79
:10013B007F10784031DF227F047E0E7D00E59054E6
:10014B00F04EF590E59054F0B4F00DEED333540F20
:10015B00FEDDFEDFE8E4801B7D041D3340FCEE7EFC
:10016B00FF0E1340FCED23234E90018B93B55103EF
:10017B00E48002F551C0E0E590440FF590D0E02209
:10018B003738392B3435362D3132332A43302E2F35
:10019B00C0077F00DFFED00722D2E5F5A0C2A52263
:1001AB00C0E0C4540F31A4D0E0540F31A4319B22D2
:1001BB00C0E0C4540FD2E431A4D0E0540FD2E431E8
:1001CB00A4319B22740131AB7F00319BDFFC2244B5
:1001DB008031AB22E631BB08DFFA22740331A43144
:1001EB009B742831AB742831AB740C31AB31CF74A9
:0F01FB000631AB2278407F107420F608DFFC221B
:101000002222A82218E6B2E0F651C7EF600DBE001A
:101010001251BE7F06E6F71819DFFAE5222406F51D
:1010200022E4229E8F2C8C2B50098E2C8B2BF404C7
:10103000C8C9C8FFC20BBD0002D20B51D8BF0B00FC
:1010400040027F0A752600511B7F04792A749EC3D3
:101050009CD4CC7001FCB45000300B18B3116B5011
:101060000805267F01511B31D221C3E637D4F7187A
:1010700019DFF822E6FEE43499972ED4F71819DF29
:10108000F34011B258792A7F04749A972400D4F758
:1010900019B3DFF578277F00E670080F0F08B82B2B
:1010A000F7410BB4100050010FE52CC39F600B40BB
:1010B00009F52C515575260021C3410551C7E5227C
:1010C000240CF522EEC2D5C39F600A4003EB8001D9
:1010D000EC6001B322BD00F57F0418181819191926
:1010E000E6FEE79E70EA0809DFF6D2D52251C5BEBA
:1010F0000002410B8D2BEF60F92E20E70510D7067B
:101100004105500221F49481FE31DE7B04AC018C58
:1011100001E7FA518BEAC4518B1CDBF38E2C8D2B2B
:10112000218351C78D2BBF000631F4E4D2E322EEB8
:1011300060C09F20E7045004410550C82481F52C6D
:1011400051D87A30AB007526007DFFD38B00792A09
:101150007F045017E6FEE434999E27D4F71819DF70
:10116000F30D40E8E79401F7B380E1116B77008A53
:1011700000A6050A7F015153BA3ACED52C0241058B
:101180007526007830E6FE600331D218087408F93D
:1011900028F8B605004013D3E41836D4D630E40955
:1011A000D9F518760131D2800619E9C3C898F879C3
:1011B00027E6C408D64206F70809B92BF4EE7003F7
:1011C000752C0051BE8922782CE6F71819B826F93B
:1011D000E422052CE52C70F9D0E0D0E021F4C00128
:1011E000792EE6540FF7E6C4540F19F71819B926EB
:1011F000F1D00122782A7499F618B826FB752CFFD5
:1012000031C3D2E122510BE4D2E022511231C3D2D8
:10121000E222E47839F618B825FB227C00C3EF609F
:10122000229402501FC000C001792A7829ECD7C44B
:10123000FCE7D6C4F71819B926F7E7C4540FF7D05E
:1012400001D00022FFE4C526C527C528C529C52A27
:10125000FC80CB7C00C3EF60229402501FC000C012
:101260000178267927E6C4F6E7C4D6F70809B82A34
:10127000F7ECC4D654F0FCD001D00022FFE4CCC57A
:101280002AC529C528C527C52680CB540FFF783825
:10129000792EE4F52F1826D430E403180608D68FEB
:1012A000F0E7A475F00A84C5F026D430E40205F016
:1012B00008D618E5F019B926DC252FD4F622A82285
:1012C000740628F922511251BEE6FFE7FE1819E60E
:1012D000FCE7FB6CFD181922C000782AE7F6191804
:1012E000B826F9D0002271A8E7B171400E51FE4036
:1012F0000AC2E5B44803D38001C3220980EAC2E5EB
:10130000B44700400122B44100B322511271A871C8
:10131000AE925878307E7FD2D5B16F5007540F719E
:10132000810980F5B42E0C203163D231B830F2D26D
:101330003280EE20D557B465028003B4453371A7DF
:1013400071AE9230B16F5045540FFD09B16F500D21
:10135000540FCD75F00AA42DFD50F07DFFED303017
:1013600009C39EF40440097401222E500374022222
:10137000CE8E2CB830025112E522C3940CF52221F6
:1013800083C2D5700BB83008303204DE0274FF22FD
:10139000203302C2322032F32031010E2033F0B864
:1013A0003902D233F6082209E7B4200C80F9B42BB5
:1013B000028004B42D02D3092251C7111BEFFE3164
:1013C000DE7827E523FB6049B4F0005073EE70022D
:1013D0007E80EBC4540FFA91A6CAC39AFF50067DD3
:1013E0003F91DB8111BA00071F91C891D58006910A
:1013F000C8EAFF918AEB540FFA60BD91D191AFB565
:101400000203EA81BF50FBCAC39ACA91BFEAFF81B7
:101410008AEE700491D981D57BF074772E402194A7
:10142000F7401D91CA91A6B40802818A918A919CC5
:10143000605791D17F01918A704F919C604B80F4ED
:1014400091CA7F01918A91D1EB540F6006FF1F91E1
:101450008A8002913491D97D4591DBEE600414B409
:10146000800591D9E4800C40067D2B91DB800491AE
:10147000CDF404C2E7F87A0079667B00B1017866A2
:10148000E6FD91DB08E8B501F722EF600EE6443097
:10149000081FFD91DBE4B82FF1745522A900E77015
:1014A0000409B92FF922EEC394805001E4FF22C34E
:1014B00074809E5001E422EF60FC91D91F80F8FFF8
:1014C000EF60F391D51F80F891B7EC600C7D2D8013
:1014D0000A7D2E80067D3080027D20A17C75F00A79
:1014E000C0E0C0F0E9A4F9EBABF0D0F0A4A2D29236
:1014F000D52BFBD0E072D54007540F29F9E43BFB14
:1015000022E4902710B11E9003E8B11E900064B150
:101510001E90000AB11E900001B11E6020227EFFC5
:101520000ECAB58300CA4012C89582C8CA9583CA3C
:1015300050EEC82582C8CA3583CA4E60E074302E8A
:10154000F7092291D9A20E920BEBB166EBB167C2FB
:101550000BE9B166E9B1677D4881DBC20B2490D409
:101560003440D4FD80F3C4540F70F0300BED227181
:10157000A8B43A00400122B43000B322C000C0E059
:10158000EDA854F60554D0E0D00022010174068085
:101590001674FA2522B400004028F522F922B18DF4
:1015A000A1B9B191A1B9E4A822284016F522E622FA
:1015B000B1A6E6F70809DCFA227C06E6F71819DC82
:1015C000FA229015FD0100B1A694815007B18D90CB
:1015D0001605A1E994075010F404FB1818E654F01E
:1015E000F6DB0122E4F6DBF422B1917B06E493F70B
:1015F000A319DBF922F5993099FDC29922412D53A7
:0B1600005441434B00000000000000BC
:00000001FF
