:1000000001023183316A110A0106118A7844111EF6
:10001000FF11B97440315478407F10315922C0002B
:1000200090018E7A0A7B2F0B114750FB1160EBF683
:1000300008A3A3A3A3DAEED0007A09E6B4300576CC
:100040002008DAF70AEA22E493CCC39CFC740193FB
:10005000CD9DFD740293CE9EFE740393CF9FFF222D
:10006000E4932CFC7401933DFD7402933EFE7403F3
:10007000933FFF22007F607E157D06108D02800376
:10008000055000DFF6DEF4DDF222758A00758C0083
:10009000755000E589D2E0C2E1D2E2C2E3F589E51C
:1000A00088C2E4C2E5F588D28C1174C28CE58AFC62
:1000B000E58CFDE550FEE4FF2275404675413D7537
:1000C000422078437945BF070040197F09E7BF0602
:1000D00003762E08F60809DFF4754D4D754E487508
:1000E0004F7A8030BF040040197F09E7BF030376D1
:1000F0002E08F60809DFF4754D4B754E48754F7A9A
:100100008012087F09E7F60809DFFA754D48754E39
:100110007A754F2022C0077F00DFFED00722D2E58C
:10012000F5A0C2A522C0E0C4540F311ED0E0540F88
:10013000311E311522C0E0C4540FD2E4311ED0E08C
:10014000540FD2E4311E311522740131257F003164
:1001500015DFFC224480312522E6313508DFFA2202
:10016000E49360053135A380F7227403311E311505
:100170007428312574283125740C312531497406D1
:1001800031252278407F107420F608DFFC2200CA57
:100190009A3B00E1F5058096980040420F00A0864A
:1001A000010010270000E8030000640000000A00BE
:0601B00000000100000048
:00000001FF
