:1000000001023184316B110A0106118A7844111EF4
:10001000FF11BA7440315578407F10315A22C00028
:1000200090018F7A0A7B2F0B114750FB1160EBF682
:1000300008A3A3A3A3DAEED0007A09E6B4300576CC
:100040002008DAF70AEA22E493CCC39CFC740193FB
:10005000CD9DFD740293CE9EFE740393CF9FFF222D
:10006000E4932CFC7401933DFD7402933EFE7403F3
:10007000933FFF22007F607E157D06108D02800376
:10008000055000DFF6DEF4DDF222C291D291758ACE
:1000900000758C00755000E589D2E0C2E1D2E2C261
:1000A000E3F589E588D2E4C2E5F588C2901174D2FF
:1000B00090AC80AD8AAE8CAF502275404675413D04
:1000C00075422078437945BF070040197F09E7BF93
:1000D0000603762E08F60809DFF4754D4D754E4877
:1000E000754F7A8030BF040040197F09E7BF0303D2
:1000F000762E08F60809DFF4754D4B754E48754F9E
:100100007A8012087F09E7F60809DFFA754D48750D
:100110004E7A754F2022C0077F00DFFED00722D223
:10012000E5F5A0C2A522C0E0C4540F311FD0E054B1
:100130000F311F311622C0E0C4540FD2E4311FD05A
:10014000E0540FD2E4311F311622740131267F00B2
:100150003116DFFC224480312622E6313608DFFAF0
:1001600022E49360053136A380F7227403311F31F6
:10017000167428312674283126740C3126314A74BD
:100180000631262278407F107420F608DFFC22001A
:10019000CA9A3B00E1F5058096980040420F00A006
:1001A00086010010270000E8030000640000000A38
:0701B0000000000100000047
:00000001FF
