:02000000012CD1
:0100030032CA
:02000B002117BB
:0100130032BA
:01001B0032B2
:0100230032AA
:10002B003231C431AB3194E4FAFBFCC200C2021191
:10003B00A6758902758A9B758C9C75A8827F647ED8
:10004B0064758810C20175500030900B300006C2E9
:10005B0000118711A680F2755001D2013090FD205E
:10006B0090FD7550023090FD2090FD75500330903F
:10007B00FD2090FD7550003090FD80C8EA2401D41E
:10008B00FAB460167A00EB2401D4FBB4600C7B004D
:10009B00EC2401D4FCB424027C00227404319FAD07
:1000AB00507840ECC4540F4430BD0105300202744B
:1000BB0020F608EC540F4430BD01053002027420C9
:1000CB00F608763A08EBC4540F4430BD02053002F3
:1000DB00027420F608EB540F4430BD0205300202C7
:1000EB007420F608763A08EAC4540F4430BD030571
:1000FB003002027420F608EA540F4430BD03053079
:10010B0002027420F678407D0831A42220010BDF17
:10011B00087F64DE047E64D20032DFFD7F64DEF98B
:10012B007E19B20220912BC202AD50BD030AEA2404
:10013B0001D4FAB460027A00BD020AEB2401D4FBAD
:10014B00B460027B00BD010AEC2401D4FCB4240290
:10015B007C0011A632C0077F00DFFED00722D2E55C
:10016B00F5A0C2A522C0E0C4540F3169D0E0540FF2
:10017B003169316022C0E0C4540FD2E43169D0E060
:10018B00540FD2E43169316022740131707F003138
:10019B0060DFFC224480317022E6318008DDFA22D8
:1001AB007403316931607428317074283170740CA8
:1001BB0031703194740631702278407F107420F6C0
:0401CB0008DFFC222B
:00000001FF
